{
    "contractName": "QVoting",
    "abi": [
        {
            "inputs": [
                {
                    "internalType": "string",
                    "name": "company_",
                    "type": "string"
                },
                {
                    "internalType": "string",
                    "name": "name_",
                    "type": "string"
                },
                {
                    "internalType": "bytes32[]",
                    "name": "optionTitles_",
                    "type": "bytes32[]"
                },
                {
                    "internalType": "uint256",
                    "name": "expirationMin",
                    "type": "uint256"
                }
            ],
            "stateMutability": "nonpayable",
            "type": "constructor"
        },
        {
            "anonymous": false,
            "inputs": [
                {
                    "indexed": true,
                    "internalType": "address",
                    "name": "previousOwner",
                    "type": "address"
                },
                {
                    "indexed": true,
                    "internalType": "address",
                    "name": "newOwner",
                    "type": "address"
                }
            ],
            "name": "OwnershipTransferred",
            "type": "event"
        },
        {
            "anonymous": false,
            "inputs": [
                {
                    "indexed": false,
                    "internalType": "address",
                    "name": "voter",
                    "type": "address"
                },
                {
                    "indexed": false,
                    "internalType": "uint256",
                    "name": "creditsUsed",
                    "type": "uint256"
                }
            ],
            "name": "VoteCasted",
            "type": "event"
        },
        {
            "inputs": [],
            "name": "company",
            "outputs": [
                {
                    "internalType": "string",
                    "name": "",
                    "type": "string"
                }
            ],
            "stateMutability": "view",
            "type": "function"
        },
        {
            "inputs": [],
            "name": "name",
            "outputs": [
                {
                    "internalType": "string",
                    "name": "",
                    "type": "string"
                }
            ],
            "stateMutability": "view",
            "type": "function"
        },
        {
            "inputs": [
                {
                    "internalType": "uint256",
                    "name": "",
                    "type": "uint256"
                }
            ],
            "name": "optionTitles",
            "outputs": [
                {
                    "internalType": "bytes32",
                    "name": "",
                    "type": "bytes32"
                }
            ],
            "stateMutability": "view",
            "type": "function"
        },
        {
            "inputs": [],
            "name": "owner",
            "outputs": [
                {
                    "internalType": "address",
                    "name": "",
                    "type": "address"
                }
            ],
            "stateMutability": "view",
            "type": "function"
        },
        {
            "inputs": [],
            "name": "renounceOwnership",
            "outputs": [],
            "stateMutability": "nonpayable",
            "type": "function"
        },
        {
            "inputs": [
                {
                    "internalType": "address",
                    "name": "newOwner",
                    "type": "address"
                }
            ],
            "name": "transferOwnership",
            "outputs": [],
            "stateMutability": "nonpayable",
            "type": "function"
        },
        {
            "inputs": [
                {
                    "internalType": "bytes32[]",
                    "name": "options",
                    "type": "bytes32[]"
                },
                {
                    "internalType": "int256[]",
                    "name": "credits",
                    "type": "int256[]"
                }
            ],
            "name": "vote",
            "outputs": [],
            "stateMutability": "nonpayable",
            "type": "function"
        },
        {
            "inputs": [],
            "name": "getElectionStatus",
            "outputs": [
                {
                    "internalType": "bool",
                    "name": "",
                    "type": "bool"
                }
            ],
            "stateMutability": "view",
            "type": "function"
        },
        {
            "inputs": [
                {
                    "internalType": "address",
                    "name": "voterAccount",
                    "type": "address"
                },
                {
                    "internalType": "uint256",
                    "name": "amount",
                    "type": "uint256"
                }
            ],
            "name": "mint",
            "outputs": [],
            "stateMutability": "nonpayable",
            "type": "function"
        },
        {
            "inputs": [],
            "name": "getResults",
            "outputs": [
                {
                    "internalType": "bytes32[]",
                    "name": "",
                    "type": "bytes32[]"
                },
                {
                    "internalType": "int256[]",
                    "name": "",
                    "type": "int256[]"
                }
            ],
            "stateMutability": "view",
            "type": "function"
        },
        {
            "inputs": [
                {
                    "internalType": "address",
                    "name": "voterAddress",
                    "type": "address"
                }
            ],
            "name": "getBalanceOf",
            "outputs": [
                {
                    "internalType": "uint256",
                    "name": "",
                    "type": "uint256"
                }
            ],
            "stateMutability": "view",
            "type": "function"
        },
        {
            "inputs": [],
            "name": "getVotingInfo",
            "outputs": [
                {
                    "internalType": "string",
                    "name": "",
                    "type": "string"
                },
                {
                    "internalType": "string",
                    "name": "",
                    "type": "string"
                },
                {
                    "internalType": "bytes32[]",
                    "name": "",
                    "type": "bytes32[]"
                }
            ],
            "stateMutability": "view",
            "type": "function"
        }
    ],
    "bytecode": "0x60806040523480156200001157600080fd5b5060405162001bff38038062001bff833981810160405260808110156200003757600080fd5b81019080805160405193929190846401000000008211156200005857600080fd5b838201915060208201858111156200006f57600080fd5b82518660018202830111640100000000821117156200008d57600080fd5b8083526020830192505050908051906020019080838360005b83811015620000c3578082015181840152602081019050620000a6565b50505050905090810190601f168015620000f15780820380516001836020036101000a031916815260200191505b50604052602001805160405193929190846401000000008211156200011557600080fd5b838201915060208201858111156200012c57600080fd5b82518660018202830111640100000000821117156200014a57600080fd5b8083526020830192505050908051906020019080838360005b838110156200018057808201518184015260208101905062000163565b50505050905090810190601f168015620001ae5780820380516001836020036101000a031916815260200191505b5060405260200180516040519392919084640100000000821115620001d257600080fd5b83820191506020820185811115620001e957600080fd5b82518660208202830111640100000000821117156200020757600080fd5b8083526020830192505050908051906020019060200280838360005b838110156200024057808201518184015260208101905062000223565b505050509050016040526020018051906020019092919050505060006200026c620003ab60201b60201c565b9050806000806101000a81548173ffffffffffffffffffffffffffffffffffffffff021916908373ffffffffffffffffffffffffffffffffffffffff1602179055508073ffffffffffffffffffffffffffffffffffffffff16600073ffffffffffffffffffffffffffffffffffffffff167f8be0079c531659141344cd1fd0a4f28419497f9722a3daafe3b4186f6b6457e060405160405180910390a350836002908051906020019062000322929190620003b3565b5082600390805190602001906200033b929190620003b3565b50603c8102420160078190555060005b8251811015620003a05760048382815181106200036457fe5b6020026020010151908060018154018082558091505060019003906000526020600020016000909190919091505580806001019150506200034b565b505050505062000459565b600033905090565b828054600181600116156101000203166002900490600052602060002090601f016020900481019282601f10620003f657805160ff191683800117855562000427565b8280016001018555821562000427579182015b828111156200042657825182559160200191906001019062000409565b5b5090506200043691906200043a565b5090565b5b80821115620004555760008160009055506001016200043b565b5090565b61179680620004696000396000f3fe608060405234801561001057600080fd5b50600436106100b45760003560e01c806368ac76d91161007157806368ac76d9146104d45780636904c94d14610516578063715018a6146105995780638da5cb5b146105a35780639b96eece146105d7578063f2fde38b1461062f576100b4565b806306fdde03146100b9578063122902a61461013c578063359af4b21461015c57806340c10f191461029357806340c20817146102e15780634717f97c1461042d575b600080fd5b6100c1610673565b6040518080602001828103825283818151815260200191508051906020019080838360005b838110156101015780820151818401526020810190506100e6565b50505050905090810190601f16801561012e5780820380516001836020036101000a031916815260200191505b509250505060405180910390f35b610144610711565b60405180821515815260200191505060405180910390f35b6101646107e6565b60405180806020018060200180602001848103845287818151815260200191508051906020019080838360005b838110156101ac578082015181840152602081019050610191565b50505050905090810190601f1680156101d95780820380516001836020036101000a031916815260200191505b50848103835286818151815260200191508051906020019080838360005b838110156102125780820151818401526020810190506101f7565b50505050905090810190601f16801561023f5780820380516001836020036101000a031916815260200191505b50848103825285818151815260200191508051906020019060200280838360005b8381101561027b578082015181840152602081019050610260565b50505050905001965050505050505060405180910390f35b6102df600480360360408110156102a957600080fd5b81019080803573ffffffffffffffffffffffffffffffffffffffff16906020019092919080359060200190929190505050610986565b005b61042b600480360360408110156102f757600080fd5b810190808035906020019064010000000081111561031457600080fd5b82018360208201111561032657600080fd5b8035906020019184602083028401116401000000008311171561034857600080fd5b919080806020026020016040519081016040528093929190818152602001838360200280828437600081840152601f19601f820116905080830192505050505050509192919290803590602001906401000000008111156103a857600080fd5b8201836020820111156103ba57600080fd5b803590602001918460208302840111640100000000831117156103dc57600080fd5b919080806020026020016040519081016040528093929190818152602001838360200280828437600081840152601f19601f820116905080830192505050505050509192919290505050610ba5565b005b610435610e78565b604051808060200180602001838103835285818151815260200191508051906020019060200280838360005b8381101561047c578082015181840152602081019050610461565b50505050905001838103825284818151815260200191508051906020019060200280838360005b838110156104be5780820151818401526020810190506104a3565b5050505090500194505050505060405180910390f35b610500600480360360208110156104ea57600080fd5b8101908080359060200190929190505050610f8a565b6040518082815260200191505060405180910390f35b61051e610fab565b6040518080602001828103825283818151815260200191508051906020019080838360005b8381101561055e578082015181840152602081019050610543565b50505050905090810190601f16801561058b5780820380516001836020036101000a031916815260200191505b509250505060405180910390f35b6105a1611049565b005b6105ab6111cf565b604051808273ffffffffffffffffffffffffffffffffffffffff16815260200191505060405180910390f35b610619600480360360208110156105ed57600080fd5b81019080803573ffffffffffffffffffffffffffffffffffffffff1690602001909291905050506111f8565b6040518082815260200191505060405180910390f35b6106716004803603602081101561064557600080fd5b81019080803573ffffffffffffffffffffffffffffffffffffffff169060200190929190505050611241565b005b60038054600181600116156101000203166002900480601f0160208091040260200160405190810160405280929190818152602001828054600181600116156101000203166002900480156107095780601f106106de57610100808354040283529160200191610709565b820191906000526020600020905b8154815290600101906020018083116106ec57829003601f168201915b505050505081565b600061071b61144c565b73ffffffffffffffffffffffffffffffffffffffff1660008054906101000a900473ffffffffffffffffffffffffffffffffffffffff1673ffffffffffffffffffffffffffffffffffffffff16146107db576040517f08c379a00000000000000000000000000000000000000000000000000000000081526004018080602001828103825260208152602001807f4f776e61626c653a2063616c6c6572206973206e6f7420746865206f776e657281525060200191505060405180910390fd5b600754421115905090565b6060806060600260036004828054600181600116156101000203166002900480601f0160208091040260200160405190810160405280929190818152602001828054600181600116156101000203166002900480156108865780601f1061085b57610100808354040283529160200191610886565b820191906000526020600020905b81548152906001019060200180831161086957829003601f168201915b50505050509250818054600181600116156101000203166002900480601f0160208091040260200160405190810160405280929190818152602001828054600181600116156101000203166002900480156109225780601f106108f757610100808354040283529160200191610922565b820191906000526020600020905b81548152906001019060200180831161090557829003601f168201915b505050505091508080548060200260200160405190810160405280929190818152602001828054801561097457602002820191906000526020600020905b815481526020019060010190808311610960575b50505050509050925092509250909192565b61098e61144c565b73ffffffffffffffffffffffffffffffffffffffff1660008054906101000a900473ffffffffffffffffffffffffffffffffffffffff1673ffffffffffffffffffffffffffffffffffffffff1614610a4e576040517f08c379a00000000000000000000000000000000000000000000000000000000081526004018080602001828103825260208152602001807f4f776e61626c653a2063616c6c6572206973206e6f7420746865206f776e657281525060200191505060405180910390fd5b600073ffffffffffffffffffffffffffffffffffffffff168273ffffffffffffffffffffffffffffffffffffffff161415610af1576040517f08c379a000000000000000000000000000000000000000000000000000000000815260040180806020018281038252601b8152602001807f6d696e74696e6720746f20746865207a65726f2061646472657373000000000081525060200191505060405180910390fd5b610b068160015461145490919063ffffffff16565b600181905550610b5e81600560008573ffffffffffffffffffffffffffffffffffffffff1673ffffffffffffffffffffffffffffffffffffffff1681526020019081526020016000205461145490919063ffffffff16565b600560008473ffffffffffffffffffffffffffffffffffffffff1673ffffffffffffffffffffffffffffffffffffffff168152602001908152602001600020819055505050565b8051825114610bff576040517f08c379a000000000000000000000000000000000000000000000000000000000815260040180806020018281038252604c8152602001806116c0604c913960600191505060405180910390fd5b600754421115610c5a576040517f08c379a000000000000000000000000000000000000000000000000000000000815260040180806020018281038252602f815260200180611732602f913960400191505060405180910390fd5b6000600560003373ffffffffffffffffffffffffffffffffffffffff1673ffffffffffffffffffffffffffffffffffffffff168152602001908152602001600020541015610ca757600080fd5b60005b8251811015610d7b576000828281518110610cc157fe5b602002602001015190506000808212610ce657610cdf8260026114dc565b9050610d19565b610cf48260000360026114dc565b7fffffffffffffffffffffffffffffffffffffffffffffffffffffffffffffffff0290505b8060066000878681518110610d2a57fe5b60200260200101518152602001908152602001600020540160066000878681518110610d5257fe5b602002602001015181526020019081526020016000208190555050508080600101915050610caa565b506000610d878261152e565b9050610ddb81600560003373ffffffffffffffffffffffffffffffffffffffff1673ffffffffffffffffffffffffffffffffffffffff168152602001908152602001600020546115b590919063ffffffff16565b600560003373ffffffffffffffffffffffffffffffffffffffff1673ffffffffffffffffffffffffffffffffffffffff168152602001908152602001600020819055507fd0e6c39f2e086dc49f1524b47725526a56945cd1ff661f37976f1725a1e569863382604051808373ffffffffffffffffffffffffffffffffffffffff1681526020018281526020019250505060405180910390a1505050565b606080606060048054905067ffffffffffffffff81118015610e9957600080fd5b50604051908082528060200260200182016040528015610ec85781602001602082028036833780820191505090505b50905060005b600480549050811015610f2b576006600060048381548110610eec57fe5b9060005260206000200154815260200190815260200160002054828281518110610f1257fe5b6020026020010181815250508080600101915050610ece565b5060048181805480602002602001604051908101604052809291908181526020018280548015610f7a57602002820191906000526020600020905b815481526020019060010190808311610f66575b5050505050915092509250509091565b60048181548110610f9757fe5b906000526020600020016000915090505481565b60028054600181600116156101000203166002900480601f0160208091040260200160405190810160405280929190818152602001828054600181600116156101000203166002900480156110415780601f1061101657610100808354040283529160200191611041565b820191906000526020600020905b81548152906001019060200180831161102457829003601f168201915b505050505081565b61105161144c565b73ffffffffffffffffffffffffffffffffffffffff1660008054906101000a900473ffffffffffffffffffffffffffffffffffffffff1673ffffffffffffffffffffffffffffffffffffffff1614611111576040517f08c379a00000000000000000000000000000000000000000000000000000000081526004018080602001828103825260208152602001807f4f776e61626c653a2063616c6c6572206973206e6f7420746865206f776e657281525060200191505060405180910390fd5b600073ffffffffffffffffffffffffffffffffffffffff1660008054906101000a900473ffffffffffffffffffffffffffffffffffffffff1673ffffffffffffffffffffffffffffffffffffffff167f8be0079c531659141344cd1fd0a4f28419497f9722a3daafe3b4186f6b6457e060405160405180910390a360008060006101000a81548173ffffffffffffffffffffffffffffffffffffffff021916908373ffffffffffffffffffffffffffffffffffffffff160217905550565b60008060009054906101000a900473ffffffffffffffffffffffffffffffffffffffff16905090565b6000600560008373ffffffffffffffffffffffffffffffffffffffff1673ffffffffffffffffffffffffffffffffffffffff168152602001908152602001600020549050919050565b61124961144c565b73ffffffffffffffffffffffffffffffffffffffff1660008054906101000a900473ffffffffffffffffffffffffffffffffffffffff1673ffffffffffffffffffffffffffffffffffffffff1614611309576040517f08c379a00000000000000000000000000000000000000000000000000000000081526004018080602001828103825260208152602001807f4f776e61626c653a2063616c6c6572206973206e6f7420746865206f776e657281525060200191505060405180910390fd5b600073ffffffffffffffffffffffffffffffffffffffff168173ffffffffffffffffffffffffffffffffffffffff16141561138f576040517f08c379a000000000000000000000000000000000000000000000000000000000815260040180806020018281038252602681526020018061170c6026913960400191505060405180910390fd5b8073ffffffffffffffffffffffffffffffffffffffff1660008054906101000a900473ffffffffffffffffffffffffffffffffffffffff1673ffffffffffffffffffffffffffffffffffffffff167f8be0079c531659141344cd1fd0a4f28419497f9722a3daafe3b4186f6b6457e060405160405180910390a3806000806101000a81548173ffffffffffffffffffffffffffffffffffffffff021916908373ffffffffffffffffffffffffffffffffffffffff16021790555050565b600033905090565b6000808284019050838110156114d2576040517f08c379a000000000000000000000000000000000000000000000000000000000815260040180806020018281038252601b8152602001807f536166654d6174683a206164646974696f6e206f766572666c6f77000000000081525060200191505060405180910390fd5b8091505092915050565b600081600202600a0a830292506000600260018501816114f857fe5b0490508391505b818110156115275780915060028182868161151657fe5b04018161151f57fe5b0490506114ff565b5092915050565b60008060005b83518110156115ab5761159c600085838151811061154e57fe5b602002602001015112156115785784828151811061156857fe5b602002602001015160000361158d565b84828151811061158457fe5b60200260200101515b8361145490919063ffffffff16565b91508080600101915050611534565b5080915050919050565b60006115f783836040518060400160405280601e81526020017f536166654d6174683a207375627472616374696f6e206f766572666c6f7700008152506115ff565b905092915050565b60008383111582906116ac576040517f08c379a00000000000000000000000000000000000000000000000000000000081526004018080602001828103825283818151815260200191508051906020019080838360005b83811015611671578082015181840152602081019050611656565b50505050905090810190601f16801561169e5780820380516001836020036101000a031916815260200191505b509250505060405180910390fd5b506000838503905080915050939250505056fe566f7465206461746120696e636f72726563746c7920636f6e73747275637465643a206f7074696f6e7320616e6420766f74657320617265206e6f74207468652073616d65206c656e6774684f776e61626c653a206e6577206f776e657220697320746865207a65726f206164647265737354696d65277320757020666f72207468697320656c656374696f6e2c2063616e277420766f746520616e796d6f7265a264697066735822122029883c992bf9c5277e7c7ab4746160aec88ebfa55616b3120951fe917330c90964736f6c634300060c0033",
    "immutableReferences": {},
    "source": "// SPDX-License-Identifier: MIT\n\npragma solidity >=0.6.0 <0.8.0;\n\nimport \"./Ownable.sol\";\nimport \"./SafeMath.sol\";\n\n/*\nI fought far too long for this.\nexample parameters to deploy\n\"foo\"\n\"bar\"\n[\"0x6162636400000000000000000000000000000000000000000000000000000000\",\"0x6262636400000000000000000000000000000000000000000000000000000000\"]\n2524611661 //year 2050, should be 2077 xd\n*/\n\ncontract QVoting is Ownable {\n    using SafeMath for uint256;\n\n    uint256 private _totalSupply;\n    string public company; // company that creates the survey\n    string public name; // name of the survey\n    bytes32[] public optionTitles; // TODO do we really need this?\n    mapping(address => uint256) private _balances;\n    mapping(bytes32 => int256) private votes; // M : optionTitle -> optionVotes\n    uint256 expirationTime; // in minutes\n    // when a vote is casted, the voter has necessarily used all his credits, and voted for all the desired options\n    event VoteCasted(address voter, uint256 creditsUsed);\n\n    constructor(\n        string memory company_,\n        string memory name_,\n        bytes32[] memory optionTitles_,\n        uint256 expirationMin\n    ) public {\n        company = company_;\n        name = name_;\n        expirationTime = now + expirationMin * 1 minutes;\n\n        for (uint256 i = 0; i < optionTitles_.length; i++) {\n            optionTitles.push(optionTitles_[i]);\n            // or maybe we could set the titles to strings\n            // optionTitles.push(string(optionTitles_[i]))\n        }\n    }\n\n    function vote(bytes32[] memory options, int256[] memory credits) public {\n        require(\n            options.length == credits.length,\n            \"Vote data incorrectly constructed: options and votes are not the same length\"\n        );\n        require(\n            now <= expirationTime,\n            \"Time's up for this election, can't vote anymore\"\n        );\n        require(_balances[msg.sender] >= 0);\n\n        // setting votes\n        for (uint256 i = 0; i < options.length; i++) {\n            int256 temp = credits[i];\n            int256 toAdd = 0;\n            if (temp >= 0) {\n                toAdd = int256(sqrt(uint256(temp), 2));\n            } else {\n                toAdd = -1*int256(sqrt(uint256(-temp), 2));\n            }\n            votes[options[i]] = votes[options[i]] + toAdd;\n        }\n\n        uint256 totalCredits = sum(credits);\n        _balances[msg.sender] = _balances[msg.sender].sub(totalCredits);\n        emit VoteCasted(msg.sender, totalCredits);\n    }\n\n    function sum(int256[] memory array) pure private returns (uint256) {\n        uint256 s;\n        for (uint256 i = 0; i < array.length; i++) {\n            s = s.add(array[i]>=0 ? uint256(array[i]) : uint256(-array[i]));\n        }\n        return s;\n    }\n\n    /**\n     * Whether the election is still open for voting or not\n     **/\n\n    function getElectionStatus() public view onlyOwner returns (bool) {\n        return (now <= expirationTime);\n    }\n\n    function mint(address voterAccount, uint256 amount) public onlyOwner {\n        require(voterAccount != address(0), \"minting to the zero address\");\n        _totalSupply = _totalSupply.add(amount);\n        _balances[voterAccount] = _balances[voterAccount].add(amount);\n    }\n\n    function getResults()\n        public\n        view\n        returns (bytes32[] memory, int256[] memory)\n    {\n        int256[] memory voteArray = new int256[](optionTitles.length);\n        for (uint256 i = 0; i < optionTitles.length; i++) {\n            voteArray[i] = (votes[optionTitles[i]]);\n        }\n        return (optionTitles, voteArray);\n    }\n\n    function getBalanceOf(address voterAddress)\n        public\n        view\n        returns (uint256)\n    {\n        return _balances[voterAddress];\n    }\n\n\tfunction getVotingInfo() \n\t\tpublic \n\t\tview \n\t\treturns(string memory, string memory, bytes32[] memory)\n\t{\n\t\treturn (company, name, optionTitles); \n\t}\n\n    /**\n     * @dev returns the square root (in int) of a number\n     * to get better precision, the results returned are multiplied by sqrt('precision')\n     * @param x the number (int)\n     * @param precision_   :  x gets multiplied by 10**(2*precision)\n     */\n    function sqrt(uint256 x, uint256 precision_)\n        internal\n        pure\n        returns (uint256 y)\n    {\n        x = x * (10**(2 * precision_));\n        uint256 z = (x + 1) / 2;\n        y = x;\n        while (z < y) {\n            y = z;\n            z = (x / z + z) / 2;\n        }\n    }\n\n}\n",
    "sourcePath": "/Users/smol/Projects/QVoteBSC/blockchain/contracts/QVoting.sol",
    "compiler": {
        "name": "solc",
        "version": "0.6.12+commit.27d51765.Emscripten.clang"
    },
    "schemaVersion": "3.3.3",
    "updatedAt": "2021-01-31T13:44:36.127Z",
    "devdoc": {
        "kind": "dev",
        "methods": {
            "owner()": {
                "details": "Returns the address of the current owner."
            },
            "renounceOwnership()": {
                "details": "Leaves the contract without owner. It will not be possible to call `onlyOwner` functions anymore. Can only be called by the current owner. NOTE: Renouncing ownership will leave the contract without an owner, thereby removing any functionality that is only available to the owner."
            },
            "transferOwnership(address)": {
                "details": "Transfers ownership of the contract to a new account (`newOwner`). Can only be called by the current owner."
            }
        },
        "version": 1
    },
    "userdoc": {
        "kind": "user",
        "methods": {
            "getElectionStatus()": {
                "notice": "Whether the election is still open for voting or not*"
            }
        },
        "version": 1
    }
}