{
  "contractName": "QVoting",
  "abi": [
    {
      "inputs": [
        {
          "internalType": "string",
          "name": "company_",
          "type": "string"
        },
        {
          "internalType": "string",
          "name": "name_",
          "type": "string"
        },
        {
          "internalType": "bytes32[]",
          "name": "optionTitles_",
          "type": "bytes32[]"
        },
        {
          "internalType": "uint256",
          "name": "expirationMin",
          "type": "uint256"
        }
      ],
      "stateMutability": "nonpayable",
      "type": "constructor"
    },
    {
      "anonymous": false,
      "inputs": [
        {
          "indexed": true,
          "internalType": "address",
          "name": "previousOwner",
          "type": "address"
        },
        {
          "indexed": true,
          "internalType": "address",
          "name": "newOwner",
          "type": "address"
        }
      ],
      "name": "OwnershipTransferred",
      "type": "event"
    },
    {
      "anonymous": false,
      "inputs": [
        {
          "indexed": false,
          "internalType": "address",
          "name": "voter",
          "type": "address"
        },
        {
          "indexed": false,
          "internalType": "uint256",
          "name": "creditsUsed",
          "type": "uint256"
        }
      ],
      "name": "VoteCasted",
      "type": "event"
    },
    {
      "inputs": [],
      "name": "company",
      "outputs": [
        {
          "internalType": "string",
          "name": "",
          "type": "string"
        }
      ],
      "stateMutability": "view",
      "type": "function"
    },
    {
      "inputs": [],
      "name": "name",
      "outputs": [
        {
          "internalType": "string",
          "name": "",
          "type": "string"
        }
      ],
      "stateMutability": "view",
      "type": "function"
    },
    {
      "inputs": [
        {
          "internalType": "uint256",
          "name": "",
          "type": "uint256"
        }
      ],
      "name": "optionTitles",
      "outputs": [
        {
          "internalType": "bytes32",
          "name": "",
          "type": "bytes32"
        }
      ],
      "stateMutability": "view",
      "type": "function"
    },
    {
      "inputs": [],
      "name": "owner",
      "outputs": [
        {
          "internalType": "address",
          "name": "",
          "type": "address"
        }
      ],
      "stateMutability": "view",
      "type": "function"
    },
    {
      "inputs": [],
      "name": "renounceOwnership",
      "outputs": [],
      "stateMutability": "nonpayable",
      "type": "function"
    },
    {
      "inputs": [
        {
          "internalType": "address",
          "name": "newOwner",
          "type": "address"
        }
      ],
      "name": "transferOwnership",
      "outputs": [],
      "stateMutability": "nonpayable",
      "type": "function"
    },
    {
      "inputs": [
        {
          "internalType": "bytes32[]",
          "name": "options",
          "type": "bytes32[]"
        },
        {
          "internalType": "int256[]",
          "name": "credits",
          "type": "int256[]"
        }
      ],
      "name": "vote",
      "outputs": [],
      "stateMutability": "nonpayable",
      "type": "function"
    },
    {
      "inputs": [],
      "name": "getElectionStatus",
      "outputs": [
        {
          "internalType": "bool",
          "name": "",
          "type": "bool"
        }
      ],
      "stateMutability": "view",
      "type": "function"
    },
    {
      "inputs": [
        {
          "internalType": "address",
          "name": "voterAccount",
          "type": "address"
        },
        {
          "internalType": "uint256",
          "name": "amount",
          "type": "uint256"
        }
      ],
      "name": "mint",
      "outputs": [],
      "stateMutability": "nonpayable",
      "type": "function"
    },
    {
      "inputs": [],
      "name": "getResults",
      "outputs": [
        {
          "internalType": "bytes32[]",
          "name": "",
          "type": "bytes32[]"
        },
        {
          "internalType": "int256[]",
          "name": "",
          "type": "int256[]"
        }
      ],
      "stateMutability": "view",
      "type": "function"
    },
    {
      "inputs": [
        {
          "internalType": "address",
          "name": "voterAddress",
          "type": "address"
        }
      ],
      "name": "getBalanceOf",
      "outputs": [
        {
          "internalType": "uint256",
          "name": "",
          "type": "uint256"
        }
      ],
      "stateMutability": "view",
      "type": "function"
    },
    {
      "inputs": [
        {
          "internalType": "address",
          "name": "voterAddress",
          "type": "address"
        }
      ],
      "name": "getVotingInfo",
      "outputs": [
        {
          "internalType": "string",
          "name": "",
          "type": "string"
        },
        {
          "internalType": "string",
          "name": "",
          "type": "string"
        },
        {
          "internalType": "bytes32[]",
          "name": "",
          "type": "bytes32[]"
        }
      ],
      "stateMutability": "view",
      "type": "function"
    }
  ],
  "bytecode": "0x60806040523480156200001157600080fd5b5060405162001e1738038062001e17833981810160405260808110156200003757600080fd5b81019080805160405193929190846401000000008211156200005857600080fd5b838201915060208201858111156200006f57600080fd5b82518660018202830111640100000000821117156200008d57600080fd5b8083526020830192505050908051906020019080838360005b83811015620000c3578082015181840152602081019050620000a6565b50505050905090810190601f168015620000f15780820380516001836020036101000a031916815260200191505b50604052602001805160405193929190846401000000008211156200011557600080fd5b838201915060208201858111156200012c57600080fd5b82518660018202830111640100000000821117156200014a57600080fd5b8083526020830192505050908051906020019080838360005b838110156200018057808201518184015260208101905062000163565b50505050905090810190601f168015620001ae5780820380516001836020036101000a031916815260200191505b5060405260200180516040519392919084640100000000821115620001d257600080fd5b83820191506020820185811115620001e957600080fd5b82518660208202830111640100000000821117156200020757600080fd5b8083526020830192505050908051906020019060200280838360005b838110156200024057808201518184015260208101905062000223565b505050509050016040526020018051906020019092919050505060006200026c620003ab60201b60201c565b9050806000806101000a81548173ffffffffffffffffffffffffffffffffffffffff021916908373ffffffffffffffffffffffffffffffffffffffff1602179055508073ffffffffffffffffffffffffffffffffffffffff16600073ffffffffffffffffffffffffffffffffffffffff167f8be0079c531659141344cd1fd0a4f28419497f9722a3daafe3b4186f6b6457e060405160405180910390a350836002908051906020019062000322929190620003b3565b5082600390805190602001906200033b929190620003b3565b50603c8102420160078190555060005b8251811015620003a05760048382815181106200036457fe5b6020026020010151908060018154018082558091505060019003906000526020600020016000909190919091505580806001019150506200034b565b505050505062000459565b600033905090565b828054600181600116156101000203166002900490600052602060002090601f016020900481019282601f10620003f657805160ff191683800117855562000427565b8280016001018555821562000427579182015b828111156200042657825182559160200191906001019062000409565b5b5090506200043691906200043a565b5090565b5b80821115620004555760008160009055506001016200043b565b5090565b6119ae80620004696000396000f3fe608060405234801561001057600080fd5b50600436106100b45760003560e01c806368ac76d91161007157806368ac76d91461050e5780636904c94d14610550578063715018a6146105d35780638da5cb5b146105dd5780639b96eece14610611578063f2fde38b14610669576100b4565b806306fdde03146100b9578063122902a61461013c5780633f639ada1461015c57806340c10f19146102cd57806340c208171461031b5780634717f97c14610467575b600080fd5b6100c16106ad565b6040518080602001828103825283818151815260200191508051906020019080838360005b838110156101015780820151818401526020810190506100e6565b50505050905090810190601f16801561012e5780820380516001836020036101000a031916815260200191505b509250505060405180910390f35b61014461074b565b60405180821515815260200191505060405180910390f35b61019e6004803603602081101561017257600080fd5b81019080803573ffffffffffffffffffffffffffffffffffffffff169060200190929190505050610820565b60405180806020018060200180602001848103845287818151815260200191508051906020019080838360005b838110156101e65780820151818401526020810190506101cb565b50505050905090810190601f1680156102135780820380516001836020036101000a031916815260200191505b50848103835286818151815260200191508051906020019080838360005b8381101561024c578082015181840152602081019050610231565b50505050905090810190601f1680156102795780820380516001836020036101000a031916815260200191505b50848103825285818151815260200191508051906020019060200280838360005b838110156102b557808201518184015260208101905061029a565b50505050905001965050505050505060405180910390f35b610319600480360360408110156102e357600080fd5b81019080803573ffffffffffffffffffffffffffffffffffffffff16906020019092919080359060200190929190505050610a0e565b005b6104656004803603604081101561033157600080fd5b810190808035906020019064010000000081111561034e57600080fd5b82018360208201111561036057600080fd5b8035906020019184602083028401116401000000008311171561038257600080fd5b919080806020026020016040519081016040528093929190818152602001838360200280828437600081840152601f19601f820116905080830192505050505050509192919290803590602001906401000000008111156103e257600080fd5b8201836020820111156103f457600080fd5b8035906020019184602083028401116401000000008311171561041657600080fd5b919080806020026020016040519081016040528093929190818152602001838360200280828437600081840152601f19601f820116905080830192505050505050509192919290505050610c2d565b005b61046f610f00565b604051808060200180602001838103835285818151815260200191508051906020019060200280838360005b838110156104b657808201518184015260208101905061049b565b50505050905001838103825284818151815260200191508051906020019060200280838360005b838110156104f85780820151818401526020810190506104dd565b5050505090500194505050505060405180910390f35b61053a6004803603602081101561052457600080fd5b81019080803590602001909291905050506110da565b6040518082815260200191505060405180910390f35b6105586110fb565b6040518080602001828103825283818151815260200191508051906020019080838360005b8381101561059857808201518184015260208101905061057d565b50505050905090810190601f1680156105c55780820380516001836020036101000a031916815260200191505b509250505060405180910390f35b6105db611199565b005b6105e561131f565b604051808273ffffffffffffffffffffffffffffffffffffffff16815260200191505060405180910390f35b6106536004803603602081101561062757600080fd5b81019080803573ffffffffffffffffffffffffffffffffffffffff169060200190929190505050611348565b6040518082815260200191505060405180910390f35b6106ab6004803603602081101561067f57600080fd5b81019080803573ffffffffffffffffffffffffffffffffffffffff169060200190929190505050611459565b005b60038054600181600116156101000203166002900480601f0160208091040260200160405190810160405280929190818152602001828054600181600116156101000203166002900480156107435780601f1061071857610100808354040283529160200191610743565b820191906000526020600020905b81548152906001019060200180831161072657829003601f168201915b505050505081565b6000610755611664565b73ffffffffffffffffffffffffffffffffffffffff1660008054906101000a900473ffffffffffffffffffffffffffffffffffffffff1673ffffffffffffffffffffffffffffffffffffffff1614610815576040517f08c379a00000000000000000000000000000000000000000000000000000000081526004018080602001828103825260208152602001807f4f776e61626c653a2063616c6c6572206973206e6f7420746865206f776e657281525060200191505060405180910390fd5b600754421115905090565b60608060606000600560008673ffffffffffffffffffffffffffffffffffffffff1673ffffffffffffffffffffffffffffffffffffffff168152602001908152602001600020541161087157600080fd5b600260036004828054600181600116156101000203166002900480601f01602080910402602001604051908101604052809291908181526020018280546001816001161561010002031660029004801561090c5780601f106108e15761010080835404028352916020019161090c565b820191906000526020600020905b8154815290600101906020018083116108ef57829003601f168201915b50505050509250818054600181600116156101000203166002900480601f0160208091040260200160405190810160405280929190818152602001828054600181600116156101000203166002900480156109a85780601f1061097d576101008083540402835291602001916109a8565b820191906000526020600020905b81548152906001019060200180831161098b57829003601f168201915b50505050509150808054806020026020016040519081016040528092919081815260200182805480156109fa57602002820191906000526020600020905b8154815260200190600101908083116109e6575b505050505090509250925092509193909250565b610a16611664565b73ffffffffffffffffffffffffffffffffffffffff1660008054906101000a900473ffffffffffffffffffffffffffffffffffffffff1673ffffffffffffffffffffffffffffffffffffffff1614610ad6576040517f08c379a00000000000000000000000000000000000000000000000000000000081526004018080602001828103825260208152602001807f4f776e61626c653a2063616c6c6572206973206e6f7420746865206f776e657281525060200191505060405180910390fd5b600073ffffffffffffffffffffffffffffffffffffffff168273ffffffffffffffffffffffffffffffffffffffff161415610b79576040517f08c379a000000000000000000000000000000000000000000000000000000000815260040180806020018281038252601b8152602001807f6d696e74696e6720746f20746865207a65726f2061646472657373000000000081525060200191505060405180910390fd5b610b8e8160015461166c90919063ffffffff16565b600181905550610be681600560008573ffffffffffffffffffffffffffffffffffffffff1673ffffffffffffffffffffffffffffffffffffffff1681526020019081526020016000205461166c90919063ffffffff16565b600560008473ffffffffffffffffffffffffffffffffffffffff1673ffffffffffffffffffffffffffffffffffffffff168152602001908152602001600020819055505050565b8051825114610c87576040517f08c379a000000000000000000000000000000000000000000000000000000000815260040180806020018281038252604c8152602001806118d8604c913960600191505060405180910390fd5b600754421115610ce2576040517f08c379a000000000000000000000000000000000000000000000000000000000815260040180806020018281038252602f81526020018061194a602f913960400191505060405180910390fd5b6000600560003373ffffffffffffffffffffffffffffffffffffffff1673ffffffffffffffffffffffffffffffffffffffff168152602001908152602001600020541015610d2f57600080fd5b60005b8251811015610e03576000828281518110610d4957fe5b602002602001015190506000808212610d6e57610d678260026116f4565b9050610da1565b610d7c8260000360026116f4565b7fffffffffffffffffffffffffffffffffffffffffffffffffffffffffffffffff0290505b8060066000878681518110610db257fe5b60200260200101518152602001908152602001600020540160066000878681518110610dda57fe5b602002602001015181526020019081526020016000208190555050508080600101915050610d32565b506000610e0f82611746565b9050610e6381600560003373ffffffffffffffffffffffffffffffffffffffff1673ffffffffffffffffffffffffffffffffffffffff168152602001908152602001600020546117cd90919063ffffffff16565b600560003373ffffffffffffffffffffffffffffffffffffffff1673ffffffffffffffffffffffffffffffffffffffff168152602001908152602001600020819055507fd0e6c39f2e086dc49f1524b47725526a56945cd1ff661f37976f1725a1e569863382604051808373ffffffffffffffffffffffffffffffffffffffff1681526020018281526020019250505060405180910390a1505050565b606080610f0b611664565b73ffffffffffffffffffffffffffffffffffffffff1660008054906101000a900473ffffffffffffffffffffffffffffffffffffffff1673ffffffffffffffffffffffffffffffffffffffff1614610fcb576040517f08c379a00000000000000000000000000000000000000000000000000000000081526004018080602001828103825260208152602001807f4f776e61626c653a2063616c6c6572206973206e6f7420746865206f776e657281525060200191505060405180910390fd5b606060048054905067ffffffffffffffff81118015610fe957600080fd5b506040519080825280602002602001820160405280156110185781602001602082028036833780820191505090505b50905060005b60048054905081101561107b57600660006004838154811061103c57fe5b906000526020600020015481526020019081526020016000205482828151811061106257fe5b602002602001018181525050808060010191505061101e565b50600481818054806020026020016040519081016040528092919081815260200182805480156110ca57602002820191906000526020600020905b8154815260200190600101908083116110b6575b5050505050915092509250509091565b600481815481106110e757fe5b906000526020600020016000915090505481565b60028054600181600116156101000203166002900480601f0160208091040260200160405190810160405280929190818152602001828054600181600116156101000203166002900480156111915780601f1061116657610100808354040283529160200191611191565b820191906000526020600020905b81548152906001019060200180831161117457829003601f168201915b505050505081565b6111a1611664565b73ffffffffffffffffffffffffffffffffffffffff1660008054906101000a900473ffffffffffffffffffffffffffffffffffffffff1673ffffffffffffffffffffffffffffffffffffffff1614611261576040517f08c379a00000000000000000000000000000000000000000000000000000000081526004018080602001828103825260208152602001807f4f776e61626c653a2063616c6c6572206973206e6f7420746865206f776e657281525060200191505060405180910390fd5b600073ffffffffffffffffffffffffffffffffffffffff1660008054906101000a900473ffffffffffffffffffffffffffffffffffffffff1673ffffffffffffffffffffffffffffffffffffffff167f8be0079c531659141344cd1fd0a4f28419497f9722a3daafe3b4186f6b6457e060405160405180910390a360008060006101000a81548173ffffffffffffffffffffffffffffffffffffffff021916908373ffffffffffffffffffffffffffffffffffffffff160217905550565b60008060009054906101000a900473ffffffffffffffffffffffffffffffffffffffff16905090565b6000611352611664565b73ffffffffffffffffffffffffffffffffffffffff1660008054906101000a900473ffffffffffffffffffffffffffffffffffffffff1673ffffffffffffffffffffffffffffffffffffffff1614611412576040517f08c379a00000000000000000000000000000000000000000000000000000000081526004018080602001828103825260208152602001807f4f776e61626c653a2063616c6c6572206973206e6f7420746865206f776e657281525060200191505060405180910390fd5b600560008373ffffffffffffffffffffffffffffffffffffffff1673ffffffffffffffffffffffffffffffffffffffff168152602001908152602001600020549050919050565b611461611664565b73ffffffffffffffffffffffffffffffffffffffff1660008054906101000a900473ffffffffffffffffffffffffffffffffffffffff1673ffffffffffffffffffffffffffffffffffffffff1614611521576040517f08c379a00000000000000000000000000000000000000000000000000000000081526004018080602001828103825260208152602001807f4f776e61626c653a2063616c6c6572206973206e6f7420746865206f776e657281525060200191505060405180910390fd5b600073ffffffffffffffffffffffffffffffffffffffff168173ffffffffffffffffffffffffffffffffffffffff1614156115a7576040517f08c379a00000000000000000000000000000000000000000000000000000000081526004018080602001828103825260268152602001806119246026913960400191505060405180910390fd5b8073ffffffffffffffffffffffffffffffffffffffff1660008054906101000a900473ffffffffffffffffffffffffffffffffffffffff1673ffffffffffffffffffffffffffffffffffffffff167f8be0079c531659141344cd1fd0a4f28419497f9722a3daafe3b4186f6b6457e060405160405180910390a3806000806101000a81548173ffffffffffffffffffffffffffffffffffffffff021916908373ffffffffffffffffffffffffffffffffffffffff16021790555050565b600033905090565b6000808284019050838110156116ea576040517f08c379a000000000000000000000000000000000000000000000000000000000815260040180806020018281038252601b8152602001807f536166654d6174683a206164646974696f6e206f766572666c6f77000000000081525060200191505060405180910390fd5b8091505092915050565b600081600202600a0a8302925060006002600185018161171057fe5b0490508391505b8181101561173f5780915060028182868161172e57fe5b04018161173757fe5b049050611717565b5092915050565b60008060005b83518110156117c3576117b4600085838151811061176657fe5b602002602001015112156117905784828151811061178057fe5b60200260200101516000036117a5565b84828151811061179c57fe5b60200260200101515b8361166c90919063ffffffff16565b9150808060010191505061174c565b5080915050919050565b600061180f83836040518060400160405280601e81526020017f536166654d6174683a207375627472616374696f6e206f766572666c6f770000815250611817565b905092915050565b60008383111582906118c4576040517f08c379a00000000000000000000000000000000000000000000000000000000081526004018080602001828103825283818151815260200191508051906020019080838360005b8381101561188957808201518184015260208101905061186e565b50505050905090810190601f1680156118b65780820380516001836020036101000a031916815260200191505b509250505060405180910390fd5b506000838503905080915050939250505056fe566f7465206461746120696e636f72726563746c7920636f6e73747275637465643a206f7074696f6e7320616e6420766f74657320617265206e6f74207468652073616d65206c656e6774684f776e61626c653a206e6577206f776e657220697320746865207a65726f206164647265737354696d65277320757020666f72207468697320656c656374696f6e2c2063616e277420766f746520616e796d6f7265a2646970667358221220b787a25e542145cb41e9fab188922c2ed8973a7ce5bda924686a01a6d0e3be3264736f6c634300060c0033",
  "immutableReferences": {},
  "source": "// SPDX-License-Identifier: MIT\n\npragma solidity >=0.6.0 <0.8.0;\n\nimport \"./Ownable.sol\";\nimport \"./SafeMath.sol\";\n\n/*\nI fought far too long for this.\nexample parameters to deploy\n\"foo\"\n\"bar\"\n[\"0x6162636400000000000000000000000000000000000000000000000000000000\",\"0x6262636400000000000000000000000000000000000000000000000000000000\"]\n2524611661 //year 2050, should be 2077 xd\n*/\n\ncontract QVoting is Ownable {\n    using SafeMath for uint256;\n\n    uint256 private _totalSupply;\n    string public company; // company that creates the survey\n    string public name; // name of the survey\n    bytes32[] public optionTitles; // TODO do we really need this?\n    mapping(address => uint256) private _balances;\n    mapping(bytes32 => int256) private votes; // M : optionTitle -> optionVotes\n    uint256 expirationTime; // in minutes\n    // when a vote is casted, the voter has necessarily used all his credits, and voted for all the desired options\n    event VoteCasted(address voter, uint256 creditsUsed);\n\n    constructor(\n        string memory company_,\n        string memory name_,\n        bytes32[] memory optionTitles_,\n        uint256 expirationMin\n    ) public {\n        company = company_;\n        name = name_;\n        expirationTime = now + expirationMin * 1 minutes;\n\n        for (uint256 i = 0; i < optionTitles_.length; i++) {\n            optionTitles.push(optionTitles_[i]);\n            // or maybe we could set the titles to strings\n            // optionTitles.push(string(optionTitles_[i]))\n        }\n    }\n\n    function vote(bytes32[] memory options, int256[] memory credits) public {\n        require(\n            options.length == credits.length,\n            \"Vote data incorrectly constructed: options and votes are not the same length\"\n        );\n        require(\n            now <= expirationTime,\n            \"Time's up for this election, can't vote anymore\"\n        );\n        require(_balances[msg.sender] >= 0);\n\n        // setting votes\n        for (uint256 i = 0; i < options.length; i++) {\n            int256 temp = credits[i];\n            int256 toAdd = 0;\n            if (temp >= 0) {\n                toAdd = int256(sqrt(uint256(temp), 2));\n            } else {\n                toAdd = -1*int256(sqrt(uint256(-temp), 2));\n            }\n            votes[options[i]] = votes[options[i]] + toAdd;\n        }\n\n        uint256 totalCredits = sum(credits);\n        _balances[msg.sender] = _balances[msg.sender].sub(totalCredits);\n        emit VoteCasted(msg.sender, totalCredits);\n    }\n\n    function sum(int256[] memory array) pure private returns (uint256) {\n        uint256 s;\n        for (uint256 i = 0; i < array.length; i++) {\n            s = s.add(array[i]>=0 ? uint256(array[i]) : uint256(-array[i]));\n        }\n        return s;\n    }\n\n    /**\n     * Whether the election is still open for voting or not\n     **/\n\n    function getElectionStatus() public view onlyOwner returns (bool) {\n        return (now <= expirationTime);\n    }\n\n    function mint(address voterAccount, uint256 amount) public onlyOwner {\n        require(voterAccount != address(0), \"minting to the zero address\");\n        _totalSupply = _totalSupply.add(amount);\n        _balances[voterAccount] = _balances[voterAccount].add(amount);\n    }\n\n    function getResults()\n        public\n        view\n        onlyOwner\n        returns (bytes32[] memory, int256[] memory)\n    {\n        int256[] memory voteArray = new int256[](optionTitles.length);\n        for (uint256 i = 0; i < optionTitles.length; i++) {\n            voteArray[i] = (votes[optionTitles[i]]);\n        }\n        return (optionTitles, voteArray);\n    }\n\n    function getBalanceOf(address voterAddress)\n        public\n        view\n        onlyOwner\n        returns (uint256)\n    {\n        return _balances[voterAddress];\n    }\n\n\tfunction getVotingInfo(address voterAddress) \n\t\tpublic \n\t\tview \n\t\treturns(string memory, string memory, bytes32[] memory)\n\t{\n\t\trequire(\n\t\t\t_balances[voterAddress] > 0\n        );\n\t\treturn (company, name, optionTitles); \n\t}\n\n    /**\n     * @dev returns the square root (in int) of a number\n     * to get better precision, the results returned are multiplied by sqrt('precision')\n     * @param x the number (int)\n     * @param precision_   :  x gets multiplied by 10**(2*precision)\n     */\n    function sqrt(uint256 x, uint256 precision_)\n        internal\n        pure\n        returns (uint256 y)\n    {\n        x = x * (10**(2 * precision_));\n        uint256 z = (x + 1) / 2;\n        y = x;\n        while (z < y) {\n            y = z;\n            z = (x / z + z) / 2;\n        }\n    }\n\n}\n",
  "sourcePath": "/Users/smol/Projects/QVoteBSC/blockchain/contracts/QVoting.sol",
  "compiler": {
    "name": "solc",
    "version": "0.6.12+commit.27d51765.Emscripten.clang"
  },
  "schemaVersion": "3.3.3",
  "updatedAt": "2021-01-31T10:06:32.735Z",
  "devdoc": {
    "kind": "dev",
    "methods": {
      "owner()": {
        "details": "Returns the address of the current owner."
      },
      "renounceOwnership()": {
        "details": "Leaves the contract without owner. It will not be possible to call `onlyOwner` functions anymore. Can only be called by the current owner. NOTE: Renouncing ownership will leave the contract without an owner, thereby removing any functionality that is only available to the owner."
      },
      "transferOwnership(address)": {
        "details": "Transfers ownership of the contract to a new account (`newOwner`). Can only be called by the current owner."
      }
    },
    "version": 1
  },
  "userdoc": {
    "kind": "user",
    "methods": {
      "getElectionStatus()": {
        "notice": "Whether the election is still open for voting or not*"
      }
    },
    "version": 1
  }
}